S015000041746D656761382D6932635F332E73726563CB
S113000012C019C018C017C016C015C014C013C040
S113001012C011C010C00FC00EC00DC00CC00BC068
S11300200AC009C008C011241FBECFE5D4E0DEBF5A
S1130030CDBFD4D18AC2E4CFAF92BF92CF92DF9228
S1130040EF92FF920F931F93CF938C01C2D0C82FCE
S11300508F3F09F045C080EDCDD0C82F8F3F09F008
S11300603FC080E0DAD0C82F8F3FD1F5B2D0C82F7F
S11300708F3FB1F581EDBED0C82F8F3F89F5780150
S1130080580126E0A20EB11C650161E0C701D3D07E
S1130090C82FF7012081822F90E09595879595953B
S11300A087959595879595958795982F990F890F9D
S11300B0880F281B21937F01CF3F91F4CE16DF06D2
S11300C021F760E0C501B7D0C82FF8018681982FC9
S11300D092959F70F6E09F9F80191124F801868302
S11300E086D08C2FCF911F910F91FF90EF90DF90CE
S11300F0CF90BF90AF9008950F931F93CF93DF934A
S1130100182FD92F062F65D0C82F8F3F99F48EEA68
S113011071D0C82F8F3F69F48D2F7FD0C82F8F3FA8
S113012041F4812F7AD0C82F8F3F19F4802F75D0D6
S1130130C82F5DD081EE94E00197F1F700C0000074
S11301408C2FDF91CF911F910F9108950F931F93DF
S1130150CF93DF93D82F062F172F3BD0C82F8F3F75
S113016091F480EA47D0C82F8F3F69F48D2F55D082
S1130170C82F8F3F41F4812F50D0C82F8F3F19F4DF
S1130180802F4BD0C82F33D08C2FDF91CF911F916C
S11301900F910895CF93DF93C82F1BD080EA2AD004
S11301A08C2F3BD016D081EA25D074D0C82FD0E054
S11301B0DC2FCC2776D0C82B1AD0CE01DF91CF917B
S11301C0089511B88AE280B9089506B607FEFDCFF6
S11301D0089584EA86BFF9DF81B1887F883019F0F9
S11301E0803119F008958FEF08958FEF089584E911
S11301F086BF0895CF93C82FE8DFC3B984E886BFCC
S1130200E4DF81B1887F883119F0803419F003C0AC
S11302108FEF01C08FEFCF910895CF93C82FD5DF13
S1130220C3B984E886BFD1DF81B1887F883209F4FD
S11302308FEFCF910895EF92FF921F93CF93DF93A7
S11302407C01162FC2DF812F8170C82FE0E0DE2FE2
S11302500024D695C7950794D695C7950794DC2FA7
S1130260C02DC468C6BFB1DF83B1F701808381B1FB
S1130270887F112319F0803521F006C0883519F0E4
S113028003C08FEF01C08FEFDF91CF911F91FF90DB
S1130290EF90089584EC86BF06B607FEFDCF83B1C8
S11302A0089584E886BF06B607FEFDCF83B108959E
S11302B0E199FECF9FBB8EBB6DBBE29AE19A089594
S11302C01F93CF93DF93EC01162F672FF1DF612F7C
S11302D0CE010196EDDFDF91CF911F910895E19951
S11302E0FECF9FBB8EBBE09A8DB308950F931F93EF
S11302F0CF93DF938C01F3DFC82FD0E0DC2FCC2722
S1130300C8010196ECDF9E01282BC901DF91CF9132
S11303101F910F910895882314F0843118F4CB01B0
S11303200297089593EC980F973218F4CB01029634
S11303300895853618F0CB0104970895CB010895EC
S11303400F931F938B01AC0160E070E0BA01552755
S1130350442720E030E0402B512B622B732B992350
S113036024F5DB01CA010197A109B1098095909593
S1130370A095B095292F3A2F4B2F5527A4E6B0E02E
S1130380DAD0AB01BC01032E33E17695679557951E
S113039047953A95D1F7302D8DE69DE0A0E0B0E089
S11303A0841B950BA60BB70B16C0252F362F472F92
S11303B05527A4E6B0E0BFD0DC01CB01072E73E1E2
S11303C0B695A795979587957A95D1F7702D83590A
S11303D0924FAF4FBF4F1F910F910895CF93DF936B
S11303E0CDB7DEB727970FB6F894DEBF0FBECDBFEB
S11303F0E8DE85E090E087D08FE493EC0197F1F795
S113040000C0000060E671E188E0A0DE60E870E012
S11304108CE09CDE89EC98E00197F1F700C00000C5
S113042080E090E063DF8C0160E870E08CE08EDEB9
S11304308CE0B0DE83FD07C089EC98E00197F1F70A
S113044000C00000F5CF80E0A5DE7C0181E0A2DEE3
S1130450BC01C70175DF7C0139D08823E9F343D09F
S1130460B70159DFF82EE92ECE010196E5DD6D8145
S1130470C80142DE6E81C80101963EDE6F81C8016B
S113048002963ADE6B81C801039636DE6A81C801A2
S1130490049632DE6981C80105962EDE6E2DC801F0
S11304A006962ADE6F2DC801079626DE085F1F4FC9
S11304B0B80180E090E004DF97E62AE18FE09150F4
S11304C020408040E1F700C00000AECF82DE8AE920
S11304D091DE81E0A2DE7DDE8BE98CDEE2DE86FB4E
S11304E0882780F90895CF9374DE8AE983DE80E05B
S11304F094DE6FDE8BE97EDED4DEC82F0CD077DE8F
S11305008C2FCF91089590BD89B9539A549A80B590
S1130510866880BD08955D9BFECF8CB90895A29F27
S1130520B001B39FC001A39F01D0B29F700D811D84
S11305301124911D0895F3DFA59F900DB49F900D94
S1110540A49F800D911D11240895F894FFCFFF
S9030000FC
